:020000040800F2
:1000000000000120D90A0008BD080008C308000844
:10001000C9080008CF080008D50800080000000043
:10002000000000000000000000000000DB080008E5
:10003000E908000800000000F708000805090008AA
:10004000290B0008290B0008290B0008290B0008C0
:10005000290B0008290B0008290B0008290B0008B0
:10006000290B0008290B0008290B0008290B0008A0
:10007000290B0008290B0008290B0008290B000890
:10008000290B0008290B0008290B000800000000BC
:10009000000000000000000000000000110900083E
:1000A000290B0008290B0008290B0008290B000860
:1000B000290B0008290B0008290B0008290B000850
:1000C000290B0008290B0008290B0008290B000840
:1000D000290B0008290B0008290B0008000000006C
:1000E000290B0008290B0008290B0008000000005C
:1000F000000000000000000000000000290B0008C4
:1001000000000000290B0008290B0008290B00083B
:1001100000000000000000000000000000000000DF
:10012000290B0008290B0008290B0008290B0008DF
:10013000290B000800000000000000000000000083
:10014000000000000000000000000000290B000873
:10015000290B0008290B0008290B0008290B0008AF
:10016000290B0008290B0008000000000000000017
:10017000000000000000000000000000000000007F
:1001800000000000290B0008000000000000000033
:04019000290B00082F
:1001A00010B5054C237833B9044B13B10448AFF3B1
:1001B00000800123237010BD7000002000000000AB
:1001C0002C2C000808B5034B1BB103490348AFF3BF
:1001D000008008BD00000000740000202C2C0008E6
:1001E00001F0FF01102A2BDB10F0070F08D010F8E8
:1001F000013B013A8B422DD010F0070F42B3F6D1EC
:10020000F0B441EA012141EA014122F007047FF004
:1002100000070023F0E80256083C85EA010586EA5B
:10022000010685FA47F5A3FA87F586FA47F6A5FA97
:1002300087F68EB9EED1F0BC01F0FF0102F00702A3
:1002400032B110F8013B013A83EA010313B1F8D14E
:100250000020704701387047002D06BF354603382F
:10026000073815F0010F07D1013015F4807F02BF68
:10027000013015F4C03F0130F0BC0138704700BFB9
:1002800053B94AB9002908BF00281CBF4FF0FF31FD
:100290004FF0FF3000F074B9ADF1080C6DE904CEF9
:1002A00000F006F8DDF804E0DDE9022304B0704751
:1002B0002DE9F047089D04468E46002B4DD18A4219
:1002C000944669D9B2FA82F252B101FA02F3C2F14C
:1002D000200120FA01F10CFA02FC41EA030E9440DD
:1002E0004FEA1C48210CBEFBF8F61FFA8CF708FBFE
:1002F00016E341EA034306FB07F199420AD91CEBD6
:10030000030306F1FF3080F01F81994240F21C8107
:10031000023E63445B1AA4B2B3FBF8F008FB10334F
:1003200044EA034400FB07F7A7420AD91CEB040484
:1003300000F1FF3380F00A81A74240F20781644454
:10034000023840EA0640E41B00261DB1D4400023D9
:10035000C5E900433146BDE8F0878B4209D9002D3D
:1003600000F0EF800026C5E9000130463146BDE8C7
:10037000F087B3FA83F6002E4AD18B4202D3824231
:1003800000F2F980841A61EB030301209E46002DE0
:10039000E0D0C5E9004EDDE702B9FFDEB2FA82F235
:1003A000002A40F09280A1EB0C014FEA1C471FFA93
:1003B0008CFE0126200CB1FBF7F307FB131140EA7A
:1003C00001410EFB03F0884208D91CEB010103F147
:1003D000FF3802D2884200F2CB804346091AA4B209
:1003E000B1FBF7F007FB101144EA01440EFB00FEDD
:1003F000A64508D91CEB040400F1FF3102D2A64542
:1004000000F2BB800846A4EB0E0440EA03409CE7E0
:10041000C6F12007B34022FA07FC4CEA030C20FA8D
:1004200007F401FA06F31C43F9404FEA1C4900FAAD
:1004300006F3B1FBF9F8200C1FFA8CFE09FB18112A
:1004400040EA014108FB0EF0884202FA06F20BD99D
:100450001CEB010108F1FF3A80F08880884240F2ED
:100460008580A8F102086144091AA4B2B1FBF9F031
:1004700009FB101144EA014100FB0EFE8E4508D92C
:100480001CEB010100F1FF346CD28E456AD90238B1
:10049000614440EA0840A0FB0294A1EB0E01A14296
:1004A000C846A64656D353D05DB1B3EB080261EB04
:1004B0000E0101FA07F722FA06F3F1401F43C5E9DE
:1004C000007100263146BDE8F087C2F12003D84014
:1004D0000CFA02FC21FA03F3914001434FEA1C4756
:1004E0001FFA8CFEB3FBF7F007FB10360B0C43EA48
:1004F000064300FB0EF69E4204FA02F408D91CEBF8
:10050000030300F1FF382FD29E422DD902386344F5
:100510009B1B89B2B3FBF7F607FB163341EA034195
:1005200006FB0EF38B4208D91CEB010106F1FF38E4
:1005300016D28B4214D9023E6144C91A46EA0046DB
:1005400038E72E46284605E70646E3E61846F8E66D
:100550004B45A9D2B9EB020864EB0C0E0138A3E7B6
:100560004646EAE7204694E74046D1E7D0467BE797
:10057000023B614432E7304609E76444023842E70F
:10058000704700BF80B582B000AF00F0CFFA00F036
:1005900093F800F0FDF800F0EFF80121274800F093
:1005A000F1FD0346012B03D10121244800F01BFE7D
:1005B0000221224800F0E6FD0346012B03D102216F
:1005C0001E4800F010FE002001F002FB02460B4620
:1005D0001346184601F090FA01F0BCFA0146184B98
:1005E00083FB0132CB17D21A13465B0013445B0026
:1005F000CA1A931C7B607B684FF47A7202FB03F388
:10060000184600F005FB4FF400510E4800F0EBFDDA
:100610004FF48071094800F0B5FD0346002BBCD1B2
:1006200000BF4FF48071054800F0ACFD0346002B7D
:10063000F7D040F6B83000F0EBFAAEE70000024029
:10064000ABAAAA2A0008024080B582B000AF0346D8
:10065000FB80FB88B3F5807F10D14FF40051144824
:1006600000F090FD0346012B08D10121114800F054
:10067000BAFD4FF400510E4800F0B5FDFB88B3F50C
:10068000007F10D14FF40051094800F07BFD034674
:10069000012B08D10221074800F0A5FD4FF40051BD
:1006A000034800F0A0FD00BF0837BD4680BD00BF75
:1006B000000802400000024080B594B000AF07F18E
:1006C000200330220021184601F00EFA07F10C0336
:1006D00000221A605A609A60DA601A610023BB60D7
:1006E000234B1B6C224A43F080531364204B1B6C3A
:1006F00003F08053BB60BB6800237B601D4B1B680D
:1007000023F440431B4A43F400431360194B1B6816
:1007100003F440437B607B6802233B620123FB625E
:1007200010233B630023BB6307F12003184600F04E
:100730008DFD0346002B01D000F092F80F23FB60E3
:1007400000233B6100237B610023BB610023FB612D
:1007500007F10C030021184600F0F0FF0346002BC0
:1007600001D000F07DF800BF5037BD4680BD00BF0E
:10077000003802400070004080B500AF00220A211E
:10078000172000F044FB172000F05DFB00BF80BD88
:1007900080B588B000AF07F10C0300221A605A60E0
:1007A0009A60DA601A610023BB602A4B1B6B294AEE
:1007B00043F004031363274B1B6B03F00403BB607C
:1007C000BB6800237B60234B1B6B224A43F0010371
:1007D0001363204B1B6B03F001037B607B680022DB
:1007E0004FF400511C4800F0E5FC002203211B4897
:1007F00000F0E0FC4FF40053FB6001233B61002359
:100800007B610023BB6107F10C031946124800F01D
:1008100035FB0323FB6001233B6100237B61002345
:10082000BB6107F10C0319460C4800F027FB4FF49D
:100830004073FB604FF488133B6100237B6107F139
:100840000C031946054800F019FB00BF2037BD46D0
:1008500080BD00BF00380240000802400000024096
:1008600080B400AF72B600BFFEE7000080B483B072
:1008700000AF00237B60104B5B6C0F4A43F4804356
:1008800053640D4B5B6C03F480437B607B680023F7
:100890003B60094B1B6C084A43F080531364064BC2
:1008A0001B6C03F080533B603B6800BF0C37BD46B8
:1008B0005DF8047B704700BF0038024080B400AF91
:1008C000FEE780B400AFFEE780B400AFFEE780B47F
:1008D00000AFFEE780B400AFFEE780B400AF00BF1A
:1008E000BD465DF8047B704780B400AF00BFBD46D5
:1008F0005DF8047B704780B400AF00BFBD465DF873
:10090000047B704780B500AF00F062F900BF80BD86
:1009100080B500AF4FF4807000F080FC4FF40070A1
:1009200000F07CFC00BF80BD80B400AF01231846FE
:10093000BD465DF8047B704780B582B000AF78603B
:10094000396001F0A7F8034616221A604FF0FF3312
:1009500018460837BD4680BD80B582B000AF7860CC
:100960004FF0FF317868FFF7E7FFFEE780B586B00C
:1009700000AFF860B9607A6000237B610AE0AFF3F2
:1009800000800146BB685A1CBA60CAB21A707B6903
:1009900001337B617A697B689A42F0DB7B68184699
:1009A0001837BD4680BD80B586B000AFF860B9602D
:1009B0007A6000237B6109E0BB685A1CBA601B782F
:1009C0001846AFF300807B6901337B617A697B68ED
:1009D0009A42F1DB7B6818461837BD4680BD80B46B
:1009E00083B000AF78604FF0FF3318460C37BD4638
:1009F0005DF8047B704780B483B000AF78603960E5
:100A00003B684FF400525A60002318460C37BD462D
:100A10005DF8047B704780B483B000AF7860012339
:100A200018460C37BD465DF8047B704780B485B02E
:100A300000AFF860B9607A60002318461437BD46ED
:100A40005DF8047B7047000080B586B000AF786029
:100A5000144A154BD31A7B617B693B61134B1B68AE
:100A6000002B02D1114B124A1A60104B1A687B6896
:100A700013443A699A4207D201F00CF803460C225B
:100A80001A604FF0FF3309E0084B1B68FB60074B0F
:100A90001A687B681344054A1360FB6818461837C8
:100AA000BD4680BD00000120000400008C00002035
:100AB000A800002080B400AF064BD3F88830054A68
:100AC00043F47003C2F8883000BFBD465DF8047B74
:100AD000704700BF00ED00E0DFF834D00D480E494C
:100AE0000E4A002302E0D458C4500433C4188C4288
:100AF000F9D30B4A0B4C002301E013600432A242ED
:100B0000FBD3FFF7D7FF00F0CBFFFFF73BFD7047AC
:100B1000000001200000002070000020AC2D000823
:100B200070000020A4000020FEE7000080B500AFA8
:100B30000E4B1B680D4A43F4007313600B4B1B688C
:100B40000A4A43F480631360084B1B68074A43F466
:100B500080731360032000F04FF90F2000F008F8B5
:100B6000FFF784FE0023184680BD00BF003C024012
:100B700080B582B000AF7860124B1A68124B1B78B8
:100B800019464FF47A73B3FBF1F3B2FBF3F3184653
:100B900000F067F90346002B01D001230EE07B68CB
:100BA0000F2B0AD8002279684FF0FF3000F02FF9A0
:100BB000064A7B681360002300E0012318460837CB
:100BC000BD4680BD00000020080000200400002079
:100BD00080B400AF064B1B781A46064B1B681344C3
:100BE000044A136000BFBD465DF8047B704700BF38
:100BF000080000209000002080B400AF034B1B6869
:100C00001846BD465DF8047B704700BF9000002089
:100C100080B584B000AF7860FFF7EEFFB8607B6806
:100C2000FB60FB68B3F1FF3F05D00A4B1B781A4607
:100C3000FB681344FB6000BFFFF7DEFF0246BB68A2
:100C4000D31AFA689A42F7D800BF00BF1037BD46E2
:100C500080BD00BF0800002080B485B000AF786080
:100C60007B6803F00703FB600C4BDB68BB60BA6872
:100C70004FF6FF031340BB60FB681A02BB681343C7
:100C800043F0BF6343F40033BB60044ABB68D360E6
:100C900000BF1437BD465DF8047B704700ED00E0EF
:100CA00080B400AF044BDB681B0A03F0070318464F
:100CB000BD465DF8047B704700ED00E080B483B072
:100CC00000AF0346FB7197F90730002B0BDBFB7974
:100CD00003F01F02074997F907305B09012000FA6A
:100CE00002F241F8232000BF0C37BD465DF8047BBB
:100CF000704700BF00E100E080B483B000AF03465E
:100D00003960FB7197F90730002B0ADB3B68DAB2D8
:100D10000C4997F907301201D2B20B4483F8002333
:100D20000AE03B68DAB20849FB7903F00F03043BA1
:100D30001201D2B20B441A7600BF0C37BD465DF8E3
:100D4000047B704700E100E000ED00E080B489B072
:100D500000AFF860B9607A60FB6803F00703FB61DD
:100D6000FB69C3F10703042B28BF0423BB61FB69A4
:100D70000433062B02D9FB69033B00E000237B61AF
:100D80004FF0FF32BB6902FA03F3DA43BB681A4043
:100D90007B699A404FF0FF317B6901FA03F3D94335
:100DA0007B680B40134318462437BD465DF8047B2F
:100DB0007047000080B582B000AF78607B68013B6F
:100DC000B3F1807F01D301230FE00A4A7B68013B26
:100DD00053600F214FF0FF30FFF78EFF054B0022CD
:100DE0009A60044B07221A60002318460837BD4654
:100DF00080BD00BF10E000E080B582B000AF786039
:100E00007868FFF729FF00BF0837BD4680BD80B571
:100E100086B000AF0346B9607A60FB7300237B6144
:100E2000FFF73EFF78617A68B9687869FFF78EFF4F
:100E3000024697F90F3011461846FFF75DFF00BFD5
:100E40001837BD4680BD80B582B000AF0346FB7148
:100E500097F907301846FFF731FF00BF0837BD4646
:100E600080BD80B582B000AF78607868FFF7A2FFE0
:100E7000034618460837BD4680BD000080B489B0DF
:100E800000AF7860396000237B6100233B61002361
:100E9000BB610023FB6159E10122FB6902FA03F304
:100EA0007B613B681B687A6913403B613A697B69E7
:100EB0009A4240F048813B685B6803F00303012BD2
:100EC00005D03B685B6803F00303022B30D17B68DD
:100ED0009B68BB61FB695B00032202FA03F3DB43FF
:100EE000BA691340BB613B68DA68FB695B0002FAD0
:100EF00003F3BA691343BB617B68BA699A607B6884
:100F00005B68BB610122FB6902FA03F3DB43BA6948
:100F10001340BB613B685B681B0903F00102FB697E
:100F200002FA03F3BA691343BB617B68BA695A607A
:100F30003B685B6803F00303032B17D07B68DB6817
:100F4000BB61FB695B00032202FA03F3DB43BA696E
:100F50001340BB613B689A68FB695B0002FA03F3CC
:100F6000BA691343BB617B68BA69DA603B685B6846
:100F700003F00303022B23D1FB69DA087B680832F4
:100F800053F82230BB61FB6903F007039B000F227B
:100F900002FA03F3DB43BA691340BB613B681A6989
:100FA000FB6903F007039B0002FA03F3BA691343DA
:100FB000BB61FB69DA087B680832B96943F8221023
:100FC0007B681B68BB61FB695B00032202FA03F3C9
:100FD000DB43BA691340BB613B685B6803F0030203
:100FE000FB695B0002FA03F3BA691343BB617B68D8
:100FF000BA691A603B685B6803F44033002B00F069
:10100000A2800023FB60574B5B6C564A43F480433D
:101010005364544B5B6C03F48043FB60FB68524A9F
:10102000FB699B08023352F82330BB61FB6903F074
:1010300003039B000F2202FA03F3DB43BA69134058
:10104000BB617B68494A934219D07B68484A934206
:1010500013D07B68474A93420DD07B68464A93423F
:1010600007D07B68454A934201D1042308E0072357
:1010700006E0032304E0022302E0012300E0002352
:10108000FA6902F0030292009340BA691343BB610C
:101090003549FB699B080233BA6941F82320384B74
:1010A0009B68BB613B69DB43BA691340BB613B682A
:1010B0005B6803F48013002B03D0BA693B691343C8
:1010C000BB612F4ABB6993602D4BDB68BB613B69F9
:1010D000DB43BA691340BB613B685B6803F40013F0
:1010E000002B03D0BA693B691343BB61244ABB6937
:1010F000D360234B5B68BB613B69DB43BA69134038
:10110000BB613B685B6803F40033002B03D0BA6912
:101110003B691343BB611A4ABB695360184B1B6898
:10112000BB613B69DB43BA691340BB613B685B68E9
:1011300003F48033002B03D0BA693B691343BB61CE
:101140000F4ABB691360FB690133FB61FB690F2B1D
:101150007FF6A2AE00BF00BF2437BD465DF8047B1A
:10116000704700BF003802400038014000000240D4
:101170000004024000080240000C0240001002403F
:10118000003C014080B485B000AF78600B467B80A6
:101190007B681A697B881340002B02D00123FB7304
:1011A00001E00023FB73FB7B18461437BD465DF856
:1011B000047B704780B483B000AF78600B467B80BF
:1011C00013467B707B78002B03D07A887B689A610A
:1011D00003E07B881A047B689A6100BF0C37BD4628
:1011E0005DF8047B704780B485B000AF78600B4633
:1011F0007B807B685B69FB607A88FB6813401A041C
:10120000FB68D9437B880B401A437B689A6100BF17
:101210001437BD465DF8047B7047000080B582B08E
:1012200000AF0346FB80084B5A69FB881340002B34
:1012300006D0054AFB885361FB881846FFF704FA7D
:1012400000BF0837BD4680BD003C014080B586B078
:1012500000AF78607B68002B01D1012367E27B68D7
:101260001B6803F00103002B75D0884B9B6803F0CB
:101270000C03042B0CD0854B9B6803F00C03082B4C
:1012800012D1824B5B6803F48003B3F5800F0BD15E
:101290007E4B1B6803F40033002B5BD07B685B68DC
:1012A000002B57D1012342E27B685B68B3F5803F96
:1012B00006D1764B1B68754A43F4803313601DE0FA
:1012C0007B685B68B3F5A02F0CD1704B1B686F4A2D
:1012D00043F4802313606D4B1B686C4A43F48033E6
:1012E00013600BE0694B1B68684A23F4803313607A
:1012F000664B1B68654A23F4802313607B685B6838
:10130000002B13D0FFF778FC386108E0FFF774FC7E
:1013100002463B69D31A642B01D9032307E25B4BD6
:101320001B6803F40033002BF0D014E0FFF764FCDB
:10133000386108E0FFF760FC02463B69D31A642B72
:1013400001D90323F3E1514B1B6803F40033002B55
:10135000F0D100E000BF7B681B6803F00203002BA4
:1013600063D04A4B9B6803F00C03002B0BD0474B18
:101370009B6803F00C03082B1CD1444B5B6803F4FF
:101380008003002B16D1414B1B6803F00203002B96
:1013900005D07B68DB68012B01D00123C7E13B4B03
:1013A0001B6823F0F8027B681B69DB003749134395
:1013B0000B603AE07B68DB68002B20D0344B0122C5
:1013C0001A60FFF719FC386108E0FFF715FC0246C8
:1013D0003B69D31A022B01D90323A8E12B4B1B68CD
:1013E00003F00203002BF0D0284B1B6823F0F80217
:1013F0007B681B69DB00254913430B6015E0244B18
:1014000000221A60FFF7F8FB386108E0FFF7F4FBF1
:1014100002463B69D31A022B01D9032387E11B4BF8
:101420001B6803F00203002BF0D17B681B6803F0FC
:101430000803002B36D07B685B69002B16D0154B58
:1014400001221A60FFF7D8FB386108E0FFF7D4FBF0
:1014500002463B69D31A022B01D9032367E10B4BE8
:101460005B6F03F00203002BF0D01BE0094B00225E
:101470001A60FFF7C1FB38610EE0FFF7BDFB0246C3
:101480003B69D31A022B07D9032350E100380240ED
:1014900000004742800E4742884B5B6F03F0020317
:1014A000002BEAD17B681B6803F00403002B00F0DB
:1014B00097800023FB75814B1B6C03F08053002B3E
:1014C0000FD10023BB607D4B1B6C7C4A43F08053E3
:1014D00013647A4B1B6C03F08053BB60BB68012321
:1014E000FB75774B1B6803F48073002B18D1744B8A
:1014F0001B68734A43F480731360FFF77DFB386108
:1015000008E0FFF779FB02463B69D31A022B01D9A9
:1015100003230CE16A4B1B6803F48073002BF0D0AB
:101520007B689B68012B06D1644B1B6F634A43F0B9
:10153000010313671CE07B689B68052B0CD15F4B94
:101540001B6F5E4A43F0040313675C4B1B6F5B4ADF
:1015500043F0010313670BE0584B1B6F574A23F00E
:1015600001031367554B1B6F544A23F004031367A1
:101570007B689B68002B15D0FFF73EFB38610AE0C3
:10158000FFF73AFB02463B69D31A41F28832934295
:1015900001D90323CBE0494B1B6F03F00203002B5F
:1015A000EED014E0FFF728FB38610AE0FFF724FBD8
:1015B00002463B69D31A41F28832934201D9032390
:1015C000B5E03E4B1B6F03F00203002BEED1FB7D19
:1015D000012B05D1394B1B6C384A23F0805313641F
:1015E0007B689B69002B00F0A180344B9B6803F063
:1015F0000C03082B5CD07B689B69022B41D1314BDB
:1016000000221A60FFF7F8FA386108E0FFF7F4FAF1
:1016100002463B69D31A022B01D9032387E0274BEB
:101620001B6803F00073002BF0D17B68DA697B68DC
:101630001B6A1A437B685B6A9B011A437B689B6A3F
:101640005B08013B1B041A437B68DB6A1B061B49D2
:1016500013434B601B4B01221A60FFF7CDFA386130
:1016600008E0FFF7C9FA02463B69D31A022B01D9F9
:1016700003235CE0114B1B6803F00073002BF0D0D8
:1016800054E0104B00221A60FFF7B6FA386108E008
:10169000FFF7B2FA02463B69D31A022B01D90323A2
:1016A00045E0064B1B6803F00073002BF0D13DE0D2
:1016B0007B689B69012B07D1012338E00038024089
:1016C00000700040600047421B4B5B68FB607B681A
:1016D0009B69012B28D0FB6803F480027B68DB69DF
:1016E0009A4221D1FB6803F03F027B681B6A9A4251
:1016F0001AD1FA6847F6C07313407A68526A9201A9
:10170000934211D1FB6803F440327B689B6A5B080B
:10171000013B1B049A4207D1FB6803F070627B68AF
:10172000DB6A1B069A4201D0012300E00023184621
:101730001837BD4680BD00BF0038024080B584B078
:1017400000AF786039607B68002B01D10123CCE0C9
:10175000684B1B6803F007033A689A420CD9654B43
:101760003A68D2B21A70634B1B6803F007033A68F9
:101770009A4201D00123B8E07B681B6803F00203A2
:10178000002B20D07B681B6803F00403002B05D0DE
:10179000594B9B68584A43F4E05393607B681B683D
:1017A00003F00803002B05D0534B9B68524A43F4C7
:1017B00060439360504B9B6823F0F0027B689B680A
:1017C0004D4913438B607B681B6803F00103002BBA
:1017D00044D07B685B68012B07D1474B1B6803F43F
:1017E0000033002B19D101237FE07B685B68022B5B
:1017F00003D07B685B68032B07D13F4B1B6803F06A
:101800000073002B09D101236FE03B4B1B6803F0F1
:101810000203002B01D1012367E0374B9B6823F0C3
:1018200003027B685B68344913438B60FFF7E4F97C
:10183000F8600AE0FFF7E0F90246FB68D31A41F2CC
:101840008832934201D903234FE02B4B9B6803F06E
:101850000C027B685B689B009A42EBD1254B1B68AE
:1018600003F007033A689A420CD2224B3A68D2B28C
:101870001A70204B1B6803F007033A689A4201D0A4
:10188000012332E07B681B6803F00403002B08D0BF
:10189000194B9B6823F4E0527B68DB6816491343BD
:1018A0008B607B681B6803F00803002B09D0124B88
:1018B0009B6823F460427B681B69DB000E4913437D
:1018C0008B6000F021F802460B4B9B681B0903F06C
:1018D0000F030A49CB5C22FA03F3094A1360094B50
:1018E0001B681846FFF744F9002318461037BD4619
:1018F00080BD00BF003C024000380240442C00087C
:1019000000000020040000202DE9B04F90B000AF8F
:1019100000237B630023FB6300233B630023BB6343
:10192000594B9B6803F00C03082B0DD0082B00F2D9
:10193000A180002B02D0042B03D09BE0534BBB6350
:101940009BE0534BBB6398E04F4B5B6803F03F0356
:101950007B634D4B5B6803F48003002B28D04A4B1C
:101960005B689B0900223B627A623B6AC3F3080012
:101970000021474B03FB01F2002300FB03F3134458
:10198000434AA0FB0212FA620A46BA62FA6A134498
:10199000FB627B6B0022BB61FA61D7E90623D7E9C2
:1019A0000A01FEF76DFC02460B461346FB6353E04B
:1019B000354B5B689B0900223B617A613B69C3F34D
:1019C000080A4FF0000B52465B464FF000004FF004
:1019D0000001590141EAD261500102460B46B2EBC7
:1019E0000A0863EB0B094FF000024FF000034FEAC7
:1019F000891343EA98634FEA8812B2EB080463EB59
:101A000009054FF000024FF00003EB0043EA547366
:101A1000E20014461D4614EB0A033B6045EB0B0342
:101A20007B604FF000024FF00003D7E900452946E4
:101A30008B02214643EA915321468A0210461946F9
:101A40007B6B0022BB60FA60D7E90223FEF718FC2B
:101A500002460B461346FB630B4B5B681B0C03F003
:101A6000030301335B003B63FA6B3B6BB2FBF3F3A5
:101A7000BB6302E0054BBB6300BFBB6B184640373E
:101A8000BD46BDE8B08F00BF003802400024F4001E
:101A900040787D01014B1868704700BF0C000020A2
:101AA00070B50D4D0D4C641BA4100026A64209D143
:101AB0000B4D0C4C01F0BAF8641BA4100026A64292
:101AC00005D170BD55F8043B98470136EEE755F84F
:101AD000043B98470136F2E7A42D0008A42D000826
:101AE000A42D0008A82D000802440346934200D10B
:101AF000704703F8011BF9E738B5104B1D68AB6B55
:101B00000446B3B9182000F0BFF80246A86320B914
:101B10000B4B0C48422100F075F80B490B4BC0E908
:101B200000130B4B83600B23838100210120C2E94A
:101B30000401AB6B00221C615A6138BD0C0000200F
:101B4000582C00086F2C00080E33CDAB34126DE614
:101B5000ECDE0500164B10B51C68A36BB3B918205A
:101B600000F092F8A06328B90246124B12484E21A9
:101B700000F048F8114A124BC0E90023114B836072
:101B80000B23838101220023C0E90423A46B0E4AA6
:101B9000206963690D49424301FB0322A0FB010157
:101BA000431C42EB0100C4E9043020F0004010BDAA
:101BB0000C000020582C00086F2C00080E33CDAB11
:101BC00034126DE6ECDE05002DF451582D7F954C56
:101BD0001FB50B4B002269460446186800F042F816
:101BE0000028BEBF4FF0FF324FF0FF33CDE9002396
:101BF000DDE900010CB1C4E9000104B010BD00BF73
:101C00000C0000201FB514461A46094B1B680546F8
:101C1000D8684CB1074B0091CDE9013406492B46F9
:101C200000F00EF800F0D6FC044B1C46F3E700BFB2
:101C30000C000020CA2C0008D72C0008052D000835
:101C40000EB403B5014603AB054853F8042B0068F6
:101C5000019300F02BF902B05DF804EB03B070477C
:101C60000C00002038B5074D0023044608461146F5
:101C70002B6000F0D3FF431C02D12B6803B123601B
:101C800038BD00BF9C000020024B0146186800F0E0
:101C90006FB800BF0C00002037B5002944D051F8C0
:101CA000043C0190002BA1F10404B8BFE41800F03B
:101CB000B9FE1E4A0198136833B96360146003B01B
:101CC000BDE8304000F0B4BEA34208D925686119D0
:101CD0008B4201BF19685B6849192160EDE71A461C
:101CE0005B680BB1A342FAD911685518A5420BD114
:101CF000246821445418A3421160E0D11C685B6839
:101D0000536021441160DAE702D90C230360D6E75F
:101D1000256861198B4204BF19685B68636004BF62
:101D2000491921605460CAE703B030BD9400002017
:101D300070B50E4E0C463168054611B900F07AFBBD
:101D400030602146284600F075FB431C0AD0C41CB5
:101D500024F00304A04207D0211A284600F06AFBB1
:101D6000013001D14FF0FF34204670BD98000020B3
:101D70002DE9F041CD1C25F0030508350C2D38BFA9
:101D80000C25002D074601DBA94205D90C233B6039
:101D900000263046BDE8F0812E4E00F043FE336849
:101DA0001C4634BB29463846FFF7C2FF431C044695
:101DB0004DD134682646002E40D12368314638463E
:101DC00004EB030800F036FB80453AD12168033567
:101DD0006D1A25F0030508350C2D38BF0C25294652
:101DE0003846FFF7A5FF01302BD023682B44236032
:101DF0000EE02268521B1ED40B2A16D96119A34289
:101E0000256018BF5960636808BF316062514B603C
:101E1000384604F10B0600F00BFE26F00706231DE2
:101E2000F21AB6D09B1BA350B3E76268A3420CBF63
:101E300032605A60ECE723466468B2E7344676685D
:101E4000B9E70C233B60384600F0F2FDA1E72560BE
:101E5000DEE700BF940000209368013B002B10B424
:101E6000936008DA9469A34201DB0A2903D15DF883
:101E7000044B00F0EFBA1368581C10601970084644
:101E80005DF8044B7047F8B506460F461446D51862
:101E9000AC4201D1002007E014F8011B3A4630465D
:101EA000FFF7DAFF431CF3D1F8BD00002DE9F04F36
:101EB0000D469DB014469846064618B183690BB985
:101EC00000F0AAFC894B9D421BD175686B6ED90747
:101ED00005D4AB899A0502D4A86D00F03BFDAB890F
:101EE0001B0701D52B69EBB92946304600F004FBEE
:101EF000C0B16B6EDC070ED54FF0FF301DB0BDE8F2
:101F0000F08F7B4B9D4201D1B568DFE7794B9D4255
:101F100008BFF568DAE7AB899805EDD4A86D00F045
:101F20001AFDE9E70023099320238DF82930CDF825
:101F30000C803023DFF8C0818DF82A304FF0010982
:101F400023469A4613F8012B0AB1252AF9D1BAEB98
:101F5000040B0BD05B46224629463046FFF793FF21
:101F6000013000F0AA80099A5A4409929AF8003088
:101F7000002B00F0A28000234FF0FF32CDE90523B3
:101F80000AF1010A049307938DF853301A935446CB
:101F9000052214F8011B5848FEF722F9049AD8B913
:101FA000D10644BF20238DF85330130744BF2B23A1
:101FB0008DF853309AF800302A2B15D0079A5446E2
:101FC00000204FF00A0C214611F8013B303B092B51
:101FD0004ED9B0B1079214E0A0EB080309FA03F35D
:101FE00013430493A246D2E7039B191D1B68039178
:101FF000002BBBBF5B4242F0020207930793B8BFBE
:10200000049223782E2B0CD163782A2B35D1039B95
:102010001A1D1B680392002BB8BF4FF0FF33023428
:102020000593DFF8E4A0217803225046FEF7D8F8A4
:1020300040B14023A0EB0A0003FA00F0049B0343E5
:102040000134049314F8011B2C488DF82810062243
:10205000FEF7C6F800283FD0294B1BBB039B073374
:1020600023F0070308330393099B3B44099367E775
:102070000CFB02320C460120A5E700230134059336
:1020800019464FF00A0C204610F8012B303A092A65
:1020900003D9002BC5D00591C3E70CFB01210446F1
:1020A0000123F0E703AB00932A46164B04A9304600
:1020B000AFF300800746781CD6D16B6ED90705D4E4
:1020C000AB899A0502D4A86D00F045FCAB895B068C
:1020D0003FF512AF099811E703AB00932A46094B6D
:1020E00004A9304600F080F8E4E700BF5C2D00084A
:1020F0007C2D00083C2D0008062D0008102D00083E
:1021000000000000871E00080C2D00082DE9F04794
:10211000164699468A680B69DDF820809342B8BF5D
:102120001346336091F8432007460C460AB1013349
:1021300033602368990642BF3368023333602568F1
:1021400015F0060506D104F1190AE36832689B1AF6
:10215000AB4226DC94F84320131E226818BF0123EB
:1021600092062BD404F1430249463846C047013059
:102170001ED02368E568326803F00603042B08BF0D
:10218000AD1AA36822690CBF25EAE57500259342C4
:10219000C4BF9B1AED1800261A34B5421AD100208C
:1021A00008E00123524649463846C047013003D172
:1021B0004FF0FF30BDE8F0870135C6E7E1185A1C43
:1021C000302081F84300224494F8451082F84310EF
:1021D0000233C7E70123224649463846C04701304B
:1021E000E6D00136D9E700002DE9FF470F7E0C9DB0
:1021F000782F914680460C469A4601F1430207D853
:10220000622F0AD8002F00F0D880582F00F0A3804A
:1022100004F1420584F842703AE0A7F16303152BFC
:10222000F6D801A151F823F0812200089522000878
:1022300011220008112200081122000811220008B2
:10224000952200081122000811220008112200081E
:1022500011220008A1230008C522000883230008DA
:102260001122000811220008C323000811220008CF
:10227000C522000811220008112200088B23000843
:102280002B681A1D1B682A6004F1420584F842304D
:102290000123A3E020682968060601F104030AD59A
:1022A0000E682B60002E03DA2D23764284F843302B
:1022B0005E480A2319E00E682B6010F0400F18BF2B
:1022C00036B2EFE72B682068191D2960010601D599
:1022D0001E6802E04606FBD51E8854486F2F0CBFCF
:1022E00008230A23002184F843106568A560002DA7
:1022F000A2BF216821F0040121600EB9002D4DD04C
:102300001546B6FBF3F103FB1167C75D05F8017DC8
:102310003746BB420E46F4D9082B0BD12368DE07A3
:1023200008D5236961689942DEBF302305F8013C76
:1023300005F1FF35521B2261CDF800A04B4603AAE0
:1023400021464046FFF7E2FE01304CD14FF0FF300E
:1023500004B0BDE8F087354881F8457029682368E6
:1023600051F8046B29601D0614D5DF0744BF43F004
:10237000200323601EB9236823F020032360102369
:10238000B0E7236843F0200323607823284884F8CB
:102390004530E3E7590648BFB6B2E6E71546BBE766
:1023A0002B6826686169181D286035061B6801D5F1
:1023B000196002E07006FBD51980002323611546E1
:1023C000BAE72B681A1D2A601D686268002128463A
:1023D000FDF706FF08B1401B6060636823610023BE
:1023E00084F84330A8E723692A4649464046D04747
:1023F0000130ABD023689B0713D4E068039B98425D
:10240000B8BF1846A4E70123324649464046D047A4
:1024100001309BD00135E36803995B1AAB42F2DCD3
:10242000EBE7002504F11906F5E700BF172D0008BA
:10243000282D000838B5064D0023044608462B60B9
:10244000FEF702FB431C02D12B6803B1236038BDA9
:102450009C000020F8B50E461446054618B1836965
:102460000BB900F0D9F9214B9C422BD16C68A369C0
:10247000A360A3891A072FD523696BB3236920684A
:10248000C01A6369F6B28342374604DC2146284607
:1024900000F02EF930BBA368013BA36023685A1CEF
:1024A00022601E7063690130834204D0A389DB0778
:1024B00006D50A2E04D12146284600F019F988B91C
:1024C0003846F8BD0A4B9C4201D1AC68CFE7094BB6
:1024D0009C4208BFEC68CAE72146284600F00CF889
:1024E0000028CBD04FF0FF37EAE700BF5C2D000893
:1024F0007C2D00083C2D0008324B70B51D68064647
:102500000C4625B1AB6913B9284600F085F92E4B6E
:102510009C420FD16C68A389B4F90C2019072CD404
:10252000DD0611D40923336042F04003A3814FF04C
:10253000FF303EE0254B9C4201D1AC68EBE7244BD9
:102540009C4208BFEC68E6E7580712D5616B41B1C1
:1025500004F14403994202D03046FFF79DFB00236B
:102560006363A38923F02403A381002363602369A9
:102570002360A38943F00803A38123694BB9A3898E
:1025800003F42073B3F5007F03D02146304600F0FA
:1025900009FAA089B4F90C2010F001030AD0002335
:1025A000A36063695B42A361236943B910F08000B3
:1025B000BAD170BD810758BF6369A360F4E70020FA
:1025C000F7E700BF0C0000205C2D00087C2D000800
:1025D0003C2D000808B5062000F058FA0120FEF74F
:1025E000BBF900008A892DE9F041054610070C4629
:1025F00058D44B68002B05DC0B6C002B02DC002050
:10260000BDE8F081E66A002EF9D0002312F4805272
:102610002F682B6032D0606DA3895A0705D5636897
:10262000C01A636B0BB1236CC01A00230246E66A22
:10263000216A2846B047431CA38906D129681D2971
:102640002CD82A4ACA40D60728D500226260D9046D
:102650002269226004D5421C01D12B6803B9606550
:10266000616B2F600029CAD004F14403994202D063
:102670002846FFF711FB00206063C1E7216A0123B0
:102680002846B047411CC7D12B68002BC4D01D2B56
:1026900001D0162B01D12F60B1E7A38943F040038D
:1026A000A381ADE70F69002FA9D093070E6808BF7B
:1026B0004B690F6018BF0023A6EB07088B60B8F1C9
:1026C000000F9CDD216AA66A43463A462846B04779
:1026D000002806DCA38943F04003A3814FF0FF30BC
:1026E0008EE70744A8EB0008E9E700BF010040209F
:1026F00038B50B6905460C4613B90025284638BD88
:1027000018B183690BB900F087F8144B9C421BD1B8
:102710006C68B4F90C30002BEFD0626ED00704D493
:10272000990502D4A06D00F015F928462146FFF75F
:1027300059FF636EDA070546E0D4A3899B05DDD413
:10274000A06D00F008F9D9E7054B9C4201D1AC68B7
:10275000DFE7044B9C4208BFEC68DAE75C2D000819
:102760007C2D00083C2D0008002310B50446C0E96C
:102770000033C0E90433836081814366C281836191
:10278000194608225C30FFF7AFF9054B6362054B31
:10279000A362054BE362054B2462236310BD00BFB7
:1027A000C52A0008E72A00081F2B0008432B000851
:1027B000014900F0AFB800BFF126000870B56822EB
:1027C0004D1E55430E4605F17401FFF7D1FA04463C
:1027D00040B10021C0E900160C30A06005F168028C
:1027E000FFF782F9204670BD014800F0B3B800BF82
:1027F000A1000020014800F0AEB800BFA1000020F9
:10280000014800F0A7B800BFA2000020014800F076
:10281000A2B800BFA200002010B50446FFF7F0FFE9
:10282000A3691BB1BDE81040FFF7F0BFC4E9123344
:102830002365134B134A1B68A262A34204BF012302
:10284000A361204600F020F86060204600F01CF8EC
:10285000A060204600F018F80022E06004216068C3
:10286000FFF782FFA06801220921FFF77DFFE068E2
:1028700002221221FFF778FF0123A361D2E700BFF4
:10288000542C0008B1270008F8B50746FFF7ACFF45
:102890001E4B1E68B36913B93046FFF7BDFF4836BB
:1028A000D6E90134013B03D533680BB33668F7E74B
:1028B000B4F90C50D5B9164BE36004F158006566C5
:1028C00000F047F8FFF796FFC4E90155C4E9045545
:1028D0002560A5610822294604F15C00FFF704F990
:1028E000C4E90D55C4E912552046F8BD6834D9E74E
:1028F00004213846FFF762FF044630600028D5D136
:10290000FFF778FF0C233B60EEE700BF542C000874
:102910000100FFFF2DE9F8430646884600F1480410
:102920000027D4E90195B9F1010905D52468002CE7
:10293000F7D13846BDE8F883AB89012B07D9B5F943
:102940000E30013303D029463046C047074368356F
:10295000E9E770477047704770B50E46B1F90E1041
:10296000002996B014461D4608DAB6F90C3000224C
:102970002A601A0610D44FF480630EE06A4600F015
:1029800007F90028F1DB019A02F47042A2F5005326
:102990005A425A412A60EEE740230020236016B0D5
:1029A00070BD00008B8973B59D0706460C4607D5A0
:1029B00004F14703236023610123636102B070BD0A
:1029C00001AB6A46FFF7C8FF009905463046FFF79E
:1029D000CFF948B9B4F90C309A05EFD423F00303CA
:1029E00043F00203A381E3E70D4BB362A3892060A8
:1029F00043F08003A381009B6361019B20615BB175
:102A0000B4F90E10304600F0D5F828B1A38923F0B0
:102A1000030343F00103A381A0890543A581CDE70A
:102A2000B12700080148FFF795BF00BFA0000020B4
:102A30000148FFF790BF00BFA00000201F2938B554
:102A400004460D4604D9162303604FF0FF3038BD0D
:102A5000426C12B152F821304BB9204600F030F8E8
:102A60002A4601462046BDE8384000F017B8012B41
:102A70000AD0591C03D1162303600120E7E7002484
:102A800042F82540284698470020E0E7024B0146DF
:102A90001868FFF7D3BF00BF0C00002038B5074D02
:102AA00000230446084611462B60FDF745FF431CF2
:102AB00002D12B6803B1236038BD00BF9C00002009
:102AC000FDF732BF10B50C46B1F90E1000F094F8C6
:102AD0000028ABBF636DA3891B1823F48053ACBFE0
:102AE0006365A38110BD2DE9F0411F468B89DB058D
:102AF00005460C46164605D5B1F90E1002230022F4
:102B000000F068F8A389B4F90E1023F48053A38170
:102B100032463B462846BDE8F04100F017B810B5F4
:102B20000C46B1F90E1000F055F8431CA38915BFEF
:102B3000606523F4805343F48053A38118BFA381BD
:102B400010BDB1F90E1000F013B8000038B5074DF4
:102B500004460846114600222A601A46FDF723FF64
:102B6000431C02D12B6803B1236038BD9C000020B8
:102B700038B5064D0023044608462B60FDF72FFFAD
:102B8000431C02D12B6803B1236038BD9C00002098
:102B900038B5074D00230446084611462B60FDF763
:102BA0002AFF431C02D12B6803B1236038BD00BF4C
:102BB0009C00002038B5064D0023044608462B60D3
:102BC000FDF729FF431C02D12B6803B1236038BDF8
:102BD0009C00002038B5074D0446084611460022E7
:102BE0002A601A46FDF722FF431C02D12B6803B16D
:102BF000236038BD9C00002038B5074D04460846C8
:102C0000114600222A601A46FDF7B0FE431C02D18D
:102C10002B6803B1236038BD9C000020024B582272
:102C20001A604FF0FF3070479C000020F8B500BFDD
:102C3000F8BC08BC9E467047F8B500BFF8BC08BC9D
:042C40009E467047F5
:102C44000000000000000000010203040607080958
:102C5400100000205245454E54206D616C6C6F632A
:102C640020737563636565646564002F6275696CC0
:102C7400642F676E752D746F6F6C732D666F722D74
:102C840073746D33325F31302E332D323032312E46
:102C940031302E32303231313130352D3131303026
:102CA4002F7372632F6E65776C69622F6E65776C14
:102CB40069622F6C6962632F7374646C69622F722A
:102CC400616E642E63002C2066756E6374696F6E8A
:102CD4003A2000617373657274696F6E20222573E4
:102CE40022206661696C65643A2066696C652022FD
:102CF4002573222C206C696E652025642573257349
:102D04000A00232D302B2000686C4C006566674553
:102D1400464700303132333435363738394142434F
:102D24004445460030313233343536373839616200
:102D340063646566000000000000000000000000FD
:102D4400000000000000000000000000000000007F
:102D5400000000000000000000000000000000006F
:102D6400000000000000000000000000000000005F
:102D7400000000000000000000000000000000004F
:102D8400000000000000000000000000000000003F
:082D9400000000000000000037
:082D9C0014D5FF7F01000000C7
:042DA400C50100085D
:042DA800A10100087D
:102DAC000024F400100000000100000010000020BE
:102DBC00000000005C2D00087C2D00083C2D000854
:102DCC0000000000000000000000000000000000F7
:102DDC0000000000000000000000000000000000E7
:102DEC0000000000000000000000000000000000D7
:102DFC0000000000000000000000000000000000C7
:102E0C0000000000000000000000000000000000B6
:0400000508000AD90C
:00000001FF
